{"contracts/Counter.sol":{"Counter":{"abi":[{"anonymous":false,"inputs":[{"indexed":false,"internalType":"uint256","name":"number","type":"uint256"}],"name":"CountedTo","type":"event"},{"inputs":[],"name":"countDown","outputs":[{"internalType":"uint256","name":"","type":"uint256"}],"stateMutability":"nonpayable","type":"function"},{"inputs":[],"name":"countUp","outputs":[{"internalType":"uint256","name":"","type":"uint256"}],"stateMutability":"nonpayable","type":"function"},{"inputs":[],"name":"getCount","outputs":[{"internalType":"uint256","name":"","type":"uint256"}],"stateMutability":"view","type":"function"}],"evm":{"bytecode":{"linkReferences":{},"object":"60806040526000805534801561001457600080fd5b506105f8806100246000396000f3fe608060405234801561001057600080fd5b50600436106100415760003560e01c80630bd8599e146100465780635fcbd5b614610064578063a87d942c14610082575b600080fd5b61004e6100a0565b60405161005b919061034d565b60405180910390f35b61006c610183565b604051610079919061034d565b60405180910390f35b61008a610266565b604051610097919061034d565b60405180910390f35b60006100e36040518060400160405280601081526020017f636f756e7455703a20636f756e74203d0000000000000000000000000000000081525060005461026f565b600060016000546100f49190610397565b9050600054811161013a576040517f08c379a00000000000000000000000000000000000000000000000000000000081526004016101319061044a565b60405180910390fd5b806000819055507fa501f5a8ef1a812bff54fb3642cfaec066c351af1716c48a7bdd05e0bb631e67600054604051610172919061034d565b60405180910390a160005491505090565b60006101c66040518060400160405280601281526020017f636f756e74446f776e3a20636f756e74203d000000000000000000000000000081525060005461026f565b600060016000546101d7919061046a565b9050600054811061021d576040517f08c379a0000000000000000000000000000000000000000000000000000000008152600401610214906104ea565b60405180910390fd5b806000819055507fa501f5a8ef1a812bff54fb3642cfaec066c351af1716c48a7bdd05e0bb631e67600054604051610255919061034d565b60405180910390a160005491505090565b60008054905090565b6103078282604051602401610285929190610592565b6040516020818303038152906040527fb60e72cc000000000000000000000000000000000000000000000000000000007bffffffffffffffffffffffffffffffffffffffffffffffffffffffff19166020820180517bffffffffffffffffffffffffffffffffffffffffffffffffffffffff838183161783525050505061030b565b5050565b60008151905060006a636f6e736f6c652e6c6f679050602083016000808483855afa5050505050565b6000819050919050565b61034781610334565b82525050565b6000602082019050610362600083018461033e565b92915050565b7f4e487b7100000000000000000000000000000000000000000000000000000000600052601160045260246000fd5b60006103a282610334565b91506103ad83610334565b9250827fffffffffffffffffffffffffffffffffffffffffffffffffffffffffffffffff038211156103e2576103e1610368565b5b828201905092915050565b600082825260208201905092915050565b7f55696e74323536206f766572666c6f7700000000000000000000000000000000600082015250565b60006104346010836103ed565b915061043f826103fe565b602082019050919050565b6000602082019050818103600083015261046381610427565b9050919050565b600061047582610334565b915061048083610334565b92508282101561049357610492610368565b5b828203905092915050565b7f55696e7432353620756e646572666c6f77000000000000000000000000000000600082015250565b60006104d46011836103ed565b91506104df8261049e565b602082019050919050565b60006020820190508181036000830152610503816104c7565b9050919050565b600081519050919050565b60005b83811015610533578082015181840152602081019050610518565b83811115610542576000848401525b50505050565b6000601f19601f8301169050919050565b60006105648261050a565b61056e81856103ed565b935061057e818560208601610515565b61058781610548565b840191505092915050565b600060408201905081810360008301526105ac8185610559565b90506105bb602083018461033e565b939250505056fea264697066735822122033e3f6430923b2bfee9438f1b42098ae4ce9495a8be4cb0a2258224d1a6d207a64736f6c634300080f0033","opcodes":"PUSH1 0x80 PUSH1 0x40 MSTORE PUSH1 0x0 DUP1 SSTORE CALLVALUE DUP1 ISZERO PUSH2 0x14 JUMPI PUSH1 0x0 DUP1 REVERT JUMPDEST POP PUSH2 0x5F8 DUP1 PUSH2 0x24 PUSH1 0x0 CODECOPY PUSH1 0x0 RETURN INVALID PUSH1 0x80 PUSH1 0x40 MSTORE CALLVALUE DUP1 ISZERO PUSH2 0x10 JUMPI PUSH1 0x0 DUP1 REVERT JUMPDEST POP PUSH1 0x4 CALLDATASIZE LT PUSH2 0x41 JUMPI PUSH1 0x0 CALLDATALOAD PUSH1 0xE0 SHR DUP1 PUSH4 0xBD8599E EQ PUSH2 0x46 JUMPI DUP1 PUSH4 0x5FCBD5B6 EQ PUSH2 0x64 JUMPI DUP1 PUSH4 0xA87D942C EQ PUSH2 0x82 JUMPI JUMPDEST PUSH1 0x0 DUP1 REVERT JUMPDEST PUSH2 0x4E PUSH2 0xA0 JUMP JUMPDEST PUSH1 0x40 MLOAD PUSH2 0x5B SWAP2 SWAP1 PUSH2 0x34D JUMP JUMPDEST PUSH1 0x40 MLOAD DUP1 SWAP2 SUB SWAP1 RETURN JUMPDEST PUSH2 0x6C PUSH2 0x183 JUMP JUMPDEST PUSH1 0x40 MLOAD PUSH2 0x79 SWAP2 SWAP1 PUSH2 0x34D JUMP JUMPDEST PUSH1 0x40 MLOAD DUP1 SWAP2 SUB SWAP1 RETURN JUMPDEST PUSH2 0x8A PUSH2 0x266 JUMP JUMPDEST PUSH1 0x40 MLOAD PUSH2 0x97 SWAP2 SWAP1 PUSH2 0x34D JUMP JUMPDEST PUSH1 0x40 MLOAD DUP1 SWAP2 SUB SWAP1 RETURN JUMPDEST PUSH1 0x0 PUSH2 0xE3 PUSH1 0x40 MLOAD DUP1 PUSH1 0x40 ADD PUSH1 0x40 MSTORE DUP1 PUSH1 0x10 DUP2 MSTORE PUSH1 0x20 ADD PUSH32 0x636F756E7455703A20636F756E74203D00000000000000000000000000000000 DUP2 MSTORE POP PUSH1 0x0 SLOAD PUSH2 0x26F JUMP JUMPDEST PUSH1 0x0 PUSH1 0x1 PUSH1 0x0 SLOAD PUSH2 0xF4 SWAP2 SWAP1 PUSH2 0x397 JUMP JUMPDEST SWAP1 POP PUSH1 0x0 SLOAD DUP2 GT PUSH2 0x13A JUMPI PUSH1 0x40 MLOAD PUSH32 0x8C379A000000000000000000000000000000000000000000000000000000000 DUP2 MSTORE PUSH1 0x4 ADD PUSH2 0x131 SWAP1 PUSH2 0x44A JUMP JUMPDEST PUSH1 0x40 MLOAD DUP1 SWAP2 SUB SWAP1 REVERT JUMPDEST DUP1 PUSH1 0x0 DUP2 SWAP1 SSTORE POP PUSH32 0xA501F5A8EF1A812BFF54FB3642CFAEC066C351AF1716C48A7BDD05E0BB631E67 PUSH1 0x0 SLOAD PUSH1 0x40 MLOAD PUSH2 0x172 SWAP2 SWAP1 PUSH2 0x34D JUMP JUMPDEST PUSH1 0x40 MLOAD DUP1 SWAP2 SUB SWAP1 LOG1 PUSH1 0x0 SLOAD SWAP2 POP POP SWAP1 JUMP JUMPDEST PUSH1 0x0 PUSH2 0x1C6 PUSH1 0x40 MLOAD DUP1 PUSH1 0x40 ADD PUSH1 0x40 MSTORE DUP1 PUSH1 0x12 DUP2 MSTORE PUSH1 0x20 ADD PUSH32 0x636F756E74446F776E3A20636F756E74203D0000000000000000000000000000 DUP2 MSTORE POP PUSH1 0x0 SLOAD PUSH2 0x26F JUMP JUMPDEST PUSH1 0x0 PUSH1 0x1 PUSH1 0x0 SLOAD PUSH2 0x1D7 SWAP2 SWAP1 PUSH2 0x46A JUMP JUMPDEST SWAP1 POP PUSH1 0x0 SLOAD DUP2 LT PUSH2 0x21D JUMPI PUSH1 0x40 MLOAD PUSH32 0x8C379A000000000000000000000000000000000000000000000000000000000 DUP2 MSTORE PUSH1 0x4 ADD PUSH2 0x214 SWAP1 PUSH2 0x4EA JUMP JUMPDEST PUSH1 0x40 MLOAD DUP1 SWAP2 SUB SWAP1 REVERT JUMPDEST DUP1 PUSH1 0x0 DUP2 SWAP1 SSTORE POP PUSH32 0xA501F5A8EF1A812BFF54FB3642CFAEC066C351AF1716C48A7BDD05E0BB631E67 PUSH1 0x0 SLOAD PUSH1 0x40 MLOAD PUSH2 0x255 SWAP2 SWAP1 PUSH2 0x34D JUMP JUMPDEST PUSH1 0x40 MLOAD DUP1 SWAP2 SUB SWAP1 LOG1 PUSH1 0x0 SLOAD SWAP2 POP POP SWAP1 JUMP JUMPDEST PUSH1 0x0 DUP1 SLOAD SWAP1 POP SWAP1 JUMP JUMPDEST PUSH2 0x307 DUP3 DUP3 PUSH1 0x40 MLOAD PUSH1 0x24 ADD PUSH2 0x285 SWAP3 SWAP2 SWAP1 PUSH2 0x592 JUMP JUMPDEST PUSH1 0x40 MLOAD PUSH1 0x20 DUP2 DUP4 SUB SUB DUP2 MSTORE SWAP1 PUSH1 0x40 MSTORE PUSH32 0xB60E72CC00000000000000000000000000000000000000000000000000000000 PUSH28 0xFFFFFFFFFFFFFFFFFFFFFFFFFFFFFFFFFFFFFFFFFFFFFFFFFFFFFFFF NOT AND PUSH1 0x20 DUP3 ADD DUP1 MLOAD PUSH28 0xFFFFFFFFFFFFFFFFFFFFFFFFFFFFFFFFFFFFFFFFFFFFFFFFFFFFFFFF DUP4 DUP2 DUP4 AND OR DUP4 MSTORE POP POP POP POP PUSH2 0x30B JUMP JUMPDEST POP POP JUMP JUMPDEST PUSH1 0x0 DUP2 MLOAD SWAP1 POP PUSH1 0x0 PUSH11 0x636F6E736F6C652E6C6F67 SWAP1 POP PUSH1 0x20 DUP4 ADD PUSH1 0x0 DUP1 DUP5 DUP4 DUP6 GAS STATICCALL POP POP POP POP POP JUMP JUMPDEST PUSH1 0x0 DUP2 SWAP1 POP SWAP2 SWAP1 POP JUMP JUMPDEST PUSH2 0x347 DUP2 PUSH2 0x334 JUMP JUMPDEST DUP3 MSTORE POP POP JUMP JUMPDEST PUSH1 0x0 PUSH1 0x20 DUP3 ADD SWAP1 POP PUSH2 0x362 PUSH1 0x0 DUP4 ADD DUP5 PUSH2 0x33E JUMP JUMPDEST SWAP3 SWAP2 POP POP JUMP JUMPDEST PUSH32 0x4E487B7100000000000000000000000000000000000000000000000000000000 PUSH1 0x0 MSTORE PUSH1 0x11 PUSH1 0x4 MSTORE PUSH1 0x24 PUSH1 0x0 REVERT JUMPDEST PUSH1 0x0 PUSH2 0x3A2 DUP3 PUSH2 0x334 JUMP JUMPDEST SWAP2 POP PUSH2 0x3AD DUP4 PUSH2 0x334 JUMP JUMPDEST SWAP3 POP DUP3 PUSH32 0xFFFFFFFFFFFFFFFFFFFFFFFFFFFFFFFFFFFFFFFFFFFFFFFFFFFFFFFFFFFFFFFF SUB DUP3 GT ISZERO PUSH2 0x3E2 JUMPI PUSH2 0x3E1 PUSH2 0x368 JUMP JUMPDEST JUMPDEST DUP3 DUP3 ADD SWAP1 POP SWAP3 SWAP2 POP POP JUMP JUMPDEST PUSH1 0x0 DUP3 DUP3 MSTORE PUSH1 0x20 DUP3 ADD SWAP1 POP SWAP3 SWAP2 POP POP JUMP JUMPDEST PUSH32 0x55696E74323536206F766572666C6F7700000000000000000000000000000000 PUSH1 0x0 DUP3 ADD MSTORE POP JUMP JUMPDEST PUSH1 0x0 PUSH2 0x434 PUSH1 0x10 DUP4 PUSH2 0x3ED JUMP JUMPDEST SWAP2 POP PUSH2 0x43F DUP3 PUSH2 0x3FE JUMP JUMPDEST PUSH1 0x20 DUP3 ADD SWAP1 POP SWAP2 SWAP1 POP JUMP JUMPDEST PUSH1 0x0 PUSH1 0x20 DUP3 ADD SWAP1 POP DUP2 DUP2 SUB PUSH1 0x0 DUP4 ADD MSTORE PUSH2 0x463 DUP2 PUSH2 0x427 JUMP JUMPDEST SWAP1 POP SWAP2 SWAP1 POP JUMP JUMPDEST PUSH1 0x0 PUSH2 0x475 DUP3 PUSH2 0x334 JUMP JUMPDEST SWAP2 POP PUSH2 0x480 DUP4 PUSH2 0x334 JUMP JUMPDEST SWAP3 POP DUP3 DUP3 LT ISZERO PUSH2 0x493 JUMPI PUSH2 0x492 PUSH2 0x368 JUMP JUMPDEST JUMPDEST DUP3 DUP3 SUB SWAP1 POP SWAP3 SWAP2 POP POP JUMP JUMPDEST PUSH32 0x55696E7432353620756E646572666C6F77000000000000000000000000000000 PUSH1 0x0 DUP3 ADD MSTORE POP JUMP JUMPDEST PUSH1 0x0 PUSH2 0x4D4 PUSH1 0x11 DUP4 PUSH2 0x3ED JUMP JUMPDEST SWAP2 POP PUSH2 0x4DF DUP3 PUSH2 0x49E JUMP JUMPDEST PUSH1 0x20 DUP3 ADD SWAP1 POP SWAP2 SWAP1 POP JUMP JUMPDEST PUSH1 0x0 PUSH1 0x20 DUP3 ADD SWAP1 POP DUP2 DUP2 SUB PUSH1 0x0 DUP4 ADD MSTORE PUSH2 0x503 DUP2 PUSH2 0x4C7 JUMP JUMPDEST SWAP1 POP SWAP2 SWAP1 POP JUMP JUMPDEST PUSH1 0x0 DUP2 MLOAD SWAP1 POP SWAP2 SWAP1 POP JUMP JUMPDEST PUSH1 0x0 JUMPDEST DUP4 DUP2 LT ISZERO PUSH2 0x533 JUMPI DUP1 DUP3 ADD MLOAD DUP2 DUP5 ADD MSTORE PUSH1 0x20 DUP2 ADD SWAP1 POP PUSH2 0x518 JUMP JUMPDEST DUP4 DUP2 GT ISZERO PUSH2 0x542 JUMPI PUSH1 0x0 DUP5 DUP5 ADD MSTORE JUMPDEST POP POP POP POP JUMP JUMPDEST PUSH1 0x0 PUSH1 0x1F NOT PUSH1 0x1F DUP4 ADD AND SWAP1 POP SWAP2 SWAP1 POP JUMP JUMPDEST PUSH1 0x0 PUSH2 0x564 DUP3 PUSH2 0x50A JUMP JUMPDEST PUSH2 0x56E DUP2 DUP6 PUSH2 0x3ED JUMP JUMPDEST SWAP4 POP PUSH2 0x57E DUP2 DUP6 PUSH1 0x20 DUP7 ADD PUSH2 0x515 JUMP JUMPDEST PUSH2 0x587 DUP2 PUSH2 0x548 JUMP JUMPDEST DUP5 ADD SWAP2 POP POP SWAP3 SWAP2 POP POP JUMP JUMPDEST PUSH1 0x0 PUSH1 0x40 DUP3 ADD SWAP1 POP DUP2 DUP2 SUB PUSH1 0x0 DUP4 ADD MSTORE PUSH2 0x5AC DUP2 DUP6 PUSH2 0x559 JUMP JUMPDEST SWAP1 POP PUSH2 0x5BB PUSH1 0x20 DUP4 ADD DUP5 PUSH2 0x33E JUMP JUMPDEST SWAP4 SWAP3 POP POP POP JUMP INVALID LOG2 PUSH5 0x6970667358 0x22 SLT KECCAK256 CALLER 0xE3 0xF6 NUMBER MULMOD 0x23 0xB2 0xBF 0xEE SWAP5 CODESIZE CALL 0xB4 KECCAK256 SWAP9 0xAE 0x4C 0xE9 0x49 GAS DUP12 0xE4 0xCB EXP 0x22 PC 0x22 0x4D BYTE PUSH14 0x207A64736F6C634300080F003300 "},"methodIdentifiers":{"countDown()":"5fcbd5b6","countUp()":"0bd8599e","getCount()":"a87d942c"}}}}}