{
  "_format": "hh-sol-artifact-1",
  "contractName": "EthPool",
  "sourceName": "contracts/EthPool.sol",
  "abi": [
    {
      "inputs": [],
      "stateMutability": "nonpayable",
      "type": "constructor"
    },
    {
      "inputs": [],
      "name": "cleanPool",
      "outputs": [],
      "stateMutability": "nonpayable",
      "type": "function"
    },
    {
      "inputs": [],
      "name": "deposit",
      "outputs": [],
      "stateMutability": "payable",
      "type": "function"
    },
    {
      "inputs": [
        {
          "internalType": "address",
          "name": "",
          "type": "address"
        }
      ],
      "name": "lastRun",
      "outputs": [
        {
          "internalType": "uint256",
          "name": "",
          "type": "uint256"
        }
      ],
      "stateMutability": "view",
      "type": "function"
    },
    {
      "inputs": [],
      "name": "poolBalance",
      "outputs": [
        {
          "internalType": "uint256",
          "name": "",
          "type": "uint256"
        }
      ],
      "stateMutability": "view",
      "type": "function"
    },
    {
      "inputs": [],
      "name": "reward",
      "outputs": [
        {
          "internalType": "uint256",
          "name": "",
          "type": "uint256"
        }
      ],
      "stateMutability": "view",
      "type": "function"
    },
    {
      "inputs": [
        {
          "internalType": "address",
          "name": "",
          "type": "address"
        }
      ],
      "name": "userDeposit",
      "outputs": [
        {
          "internalType": "uint256",
          "name": "",
          "type": "uint256"
        }
      ],
      "stateMutability": "view",
      "type": "function"
    },
    {
      "inputs": [
        {
          "internalType": "address",
          "name": "",
          "type": "address"
        }
      ],
      "name": "userEarned",
      "outputs": [
        {
          "internalType": "uint256",
          "name": "",
          "type": "uint256"
        }
      ],
      "stateMutability": "view",
      "type": "function"
    },
    {
      "inputs": [],
      "name": "withdraw",
      "outputs": [],
      "stateMutability": "nonpayable",
      "type": "function"
    }
  ],
  "bytecode": "0x608060405234801561001057600080fd5b50336000806101000a81548173ffffffffffffffffffffffffffffffffffffffff021916908373ffffffffffffffffffffffffffffffffffffffff160217905550610f3c806100606000396000f3fe60806040526004361061007b5760003560e01c806396365d441161004e57806396365d4414610116578063cba7254014610141578063d0e30db01461017e578063d1260edd146101885761007b565b806320d8d96914610080578063228cb733146100975780633ccfd60b146100c2578063407ffe76146100d9575b600080fd5b34801561008c57600080fd5b506100956101c5565b005b3480156100a357600080fd5b506100ac6102d7565b6040516100b99190610a73565b60405180910390f35b3480156100ce57600080fd5b506100d76102dd565b005b3480156100e557600080fd5b5061010060048036038101906100fb9190610af1565b610830565b60405161010d9190610a73565b60405180910390f35b34801561012257600080fd5b5061012b610848565b6040516101389190610a73565b60405180910390f35b34801561014d57600080fd5b5061016860048036038101906101639190610af1565b61084e565b6040516101759190610a73565b60405180910390f35b610186610866565b005b34801561019457600080fd5b506101af60048036038101906101aa9190610af1565b610a2c565b6040516101bc9190610a73565b60405180910390f35b60008054906101000a900473ffffffffffffffffffffffffffffffffffffffff1673ffffffffffffffffffffffffffffffffffffffff163373ffffffffffffffffffffffffffffffffffffffff1614610253576040517f08c379a000000000000000000000000000000000000000000000000000000000815260040161024a90610b7b565b60405180910390fd5b60006001541480156102655750600047115b61026e57600080fd5b60008054906101000a900473ffffffffffffffffffffffffffffffffffffffff1673ffffffffffffffffffffffffffffffffffffffff166108fc479081150290604051600060405180830381858888f193505050501580156102d4573d6000803e3d6000fd5b50565b60025481565b60008054906101000a900473ffffffffffffffffffffffffffffffffffffffff1673ffffffffffffffffffffffffffffffffffffffff163373ffffffffffffffffffffffffffffffffffffffff160361036b576040517f08c379a000000000000000000000000000000000000000000000000000000000815260040161036290610be7565b60405180910390fd5b60045460035410156103b2576040517f08c379a00000000000000000000000000000000000000000000000000000000081526004016103a990610c53565b60405180910390fd5b6000600560003373ffffffffffffffffffffffffffffffffffffffff1673ffffffffffffffffffffffffffffffffffffffff1681526020019081526020016000205411610434576040517f08c379a000000000000000000000000000000000000000000000000000000000815260040161042b90610cbf565b60405180910390fd5b602d600860003373ffffffffffffffffffffffffffffffffffffffff1673ffffffffffffffffffffffffffffffffffffffff16815260200190815260200160002054426104819190610d0e565b1115610655576000600560003373ffffffffffffffffffffffffffffffffffffffff1673ffffffffffffffffffffffffffffffffffffffff168152602001908152602001600020549050600060646002546001546064600560003373ffffffffffffffffffffffffffffffffffffffff1673ffffffffffffffffffffffffffffffffffffffff168152602001908152602001600020546105219190610d42565b61052b9190610dcb565b6105359190610d42565b61053f9190610dcb565b90503373ffffffffffffffffffffffffffffffffffffffff166108fc82846105679190610dfc565b9081150290604051600060405180830381858888f19350505050158015610592573d6000803e3d6000fd5b506000600560003373ffffffffffffffffffffffffffffffffffffffff1673ffffffffffffffffffffffffffffffffffffffff1681526020019081526020016000208190555080600760003373ffffffffffffffffffffffffffffffffffffffff1673ffffffffffffffffffffffffffffffffffffffff16815260200190815260200160002060008282546106279190610dfc565b925050819055506004600081548092919061064190610e52565b919050555061064e610a44565b505061082e565b6000600560003373ffffffffffffffffffffffffffffffffffffffff1673ffffffffffffffffffffffffffffffffffffffff168152602001908152602001600020549050600060646002546001546064600560003373ffffffffffffffffffffffffffffffffffffffff1673ffffffffffffffffffffffffffffffffffffffff168152602001908152602001600020546106ef9190610d42565b6106f99190610dcb565b6107039190610d42565b61070d9190610dcb565b905060028161071c9190610dcb565b90503373ffffffffffffffffffffffffffffffffffffffff166108fc82846107449190610dfc565b9081150290604051600060405180830381858888f1935050505015801561076f573d6000803e3d6000fd5b506000600560003373ffffffffffffffffffffffffffffffffffffffff1673ffffffffffffffffffffffffffffffffffffffff1681526020019081526020016000208190555080600760003373ffffffffffffffffffffffffffffffffffffffff1673ffffffffffffffffffffffffffffffffffffffff16815260200190815260200160002060008282546108049190610dfc565b925050819055506004600081548092919061081e90610e52565b919050555061082b610a44565b50505b565b60086020528060005260406000206000915090505481565b60015481565b60076020528060005260406000206000915090505481565b60008054906101000a900473ffffffffffffffffffffffffffffffffffffffff1673ffffffffffffffffffffffffffffffffffffffff163373ffffffffffffffffffffffffffffffffffffffff16036108c557346002819055506109e7565b34600560003373ffffffffffffffffffffffffffffffffffffffff1673ffffffffffffffffffffffffffffffffffffffff16815260200190815260200160002060008282546109149190610dfc565b9250508190555034600660003373ffffffffffffffffffffffffffffffffffffffff1673ffffffffffffffffffffffffffffffffffffffff168152602001908152602001600020600082825461096a9190610dfc565b9250508190555034600160008282546109839190610dfc565b925050819055506003600081548092919061099d90610e52565b919050555042600860003373ffffffffffffffffffffffffffffffffffffffff1673ffffffffffffffffffffffffffffffffffffffff168152602001908152602001600020819055505b60003411610a2a576040517f08c379a0000000000000000000000000000000000000000000000000000000008152600401610a2190610ee6565b60405180910390fd5b565b60066020528060005260406000206000915090505481565b60035460045403610a585760006001819055505b565b6000819050919050565b610a6d81610a5a565b82525050565b6000602082019050610a886000830184610a64565b92915050565b600080fd5b600073ffffffffffffffffffffffffffffffffffffffff82169050919050565b6000610abe82610a93565b9050919050565b610ace81610ab3565b8114610ad957600080fd5b50565b600081359050610aeb81610ac5565b92915050565b600060208284031215610b0757610b06610a8e565b5b6000610b1584828501610adc565b91505092915050565b600082825260208201905092915050565b7f4f6e6c79206f776e65722063616e20636c65616e2074686520706f6f6c210000600082015250565b6000610b65601e83610b1e565b9150610b7082610b2f565b602082019050919050565b60006020820190508181036000830152610b9481610b58565b9050919050565b7f4f776e65722063616e2774207769746864726121000000000000000000000000600082015250565b6000610bd1601483610b1e565b9150610bdc82610b9b565b602082019050919050565b60006020820190508181036000830152610c0081610bc4565b9050919050565b7f416c6c20726577617264732061726520636c65616e6564210000000000000000600082015250565b6000610c3d601883610b1e565b9150610c4882610c07565b602082019050919050565b60006020820190508181036000830152610c6c81610c30565b9050919050565b7f596f75207769746864726177206265666f722100000000000000000000000000600082015250565b6000610ca9601383610b1e565b9150610cb482610c73565b602082019050919050565b60006020820190508181036000830152610cd881610c9c565b9050919050565b7f4e487b7100000000000000000000000000000000000000000000000000000000600052601160045260246000fd5b6000610d1982610a5a565b9150610d2483610a5a565b925082821015610d3757610d36610cdf565b5b828203905092915050565b6000610d4d82610a5a565b9150610d5883610a5a565b9250817fffffffffffffffffffffffffffffffffffffffffffffffffffffffffffffffff0483118215151615610d9157610d90610cdf565b5b828202905092915050565b7f4e487b7100000000000000000000000000000000000000000000000000000000600052601260045260246000fd5b6000610dd682610a5a565b9150610de183610a5a565b925082610df157610df0610d9c565b5b828204905092915050565b6000610e0782610a5a565b9150610e1283610a5a565b9250827fffffffffffffffffffffffffffffffffffffffffffffffffffffffffffffffff03821115610e4757610e46610cdf565b5b828201905092915050565b6000610e5d82610a5a565b91507fffffffffffffffffffffffffffffffffffffffffffffffffffffffffffffffff8203610e8f57610e8e610cdf565b5b600182019050919050565b7f43616e2774206465706f736974206e6f7468696e672100000000000000000000600082015250565b6000610ed0601683610b1e565b9150610edb82610e9a565b602082019050919050565b60006020820190508181036000830152610eff81610ec3565b905091905056fea2646970667358221220edcc382167b3f7d5f423d7a470c1fe3780f300cd0e82aa4ae92d6db5383003ab64736f6c634300080f0033",
  "linkReferences": {},
  "deployedLinkReferences": {}
}