{
  "_format": "hh-sol-artifact-1",
  "contractName": "EthPool",
  "sourceName": "contracts/EthPool.sol",
  "abi": [
    {
      "inputs": [],
      "stateMutability": "nonpayable",
      "type": "constructor"
    },
    {
      "anonymous": false,
      "inputs": [
        {
          "indexed": true,
          "internalType": "address",
          "name": "depositer",
          "type": "address"
        },
        {
          "indexed": false,
          "internalType": "uint256",
          "name": "amount",
          "type": "uint256"
        }
      ],
      "name": "DepositMade",
      "type": "event"
    },
    {
      "anonymous": false,
      "inputs": [
        {
          "indexed": true,
          "internalType": "address",
          "name": "totalPool",
          "type": "address"
        },
        {
          "indexed": false,
          "internalType": "string",
          "name": "message",
          "type": "string"
        }
      ],
      "name": "RewardAdded",
      "type": "event"
    },
    {
      "anonymous": false,
      "inputs": [
        {
          "indexed": true,
          "internalType": "address",
          "name": "depositer",
          "type": "address"
        },
        {
          "indexed": false,
          "internalType": "uint256",
          "name": "amount",
          "type": "uint256"
        }
      ],
      "name": "Withdrawn",
      "type": "event"
    },
    {
      "stateMutability": "payable",
      "type": "fallback"
    },
    {
      "inputs": [],
      "name": "accRewardPerEth",
      "outputs": [
        {
          "internalType": "uint256",
          "name": "",
          "type": "uint256"
        }
      ],
      "stateMutability": "view",
      "type": "function"
    },
    {
      "inputs": [
        {
          "internalType": "address",
          "name": "user",
          "type": "address"
        }
      ],
      "name": "balanceOf",
      "outputs": [
        {
          "internalType": "uint256",
          "name": "",
          "type": "uint256"
        }
      ],
      "stateMutability": "view",
      "type": "function"
    },
    {
      "inputs": [],
      "name": "deposit",
      "outputs": [],
      "stateMutability": "payable",
      "type": "function"
    },
    {
      "inputs": [],
      "name": "depositRewards",
      "outputs": [],
      "stateMutability": "payable",
      "type": "function"
    },
    {
      "inputs": [],
      "name": "getPoolValue",
      "outputs": [
        {
          "internalType": "uint256",
          "name": "",
          "type": "uint256"
        }
      ],
      "stateMutability": "view",
      "type": "function"
    },
    {
      "inputs": [],
      "name": "rewardCounter",
      "outputs": [
        {
          "internalType": "uint256",
          "name": "",
          "type": "uint256"
        }
      ],
      "stateMutability": "view",
      "type": "function"
    },
    {
      "inputs": [],
      "name": "team",
      "outputs": [
        {
          "internalType": "address",
          "name": "",
          "type": "address"
        }
      ],
      "stateMutability": "view",
      "type": "function"
    },
    {
      "inputs": [],
      "name": "totalPool",
      "outputs": [
        {
          "internalType": "uint256",
          "name": "",
          "type": "uint256"
        }
      ],
      "stateMutability": "view",
      "type": "function"
    },
    {
      "inputs": [
        {
          "internalType": "address",
          "name": "",
          "type": "address"
        },
        {
          "internalType": "uint256",
          "name": "",
          "type": "uint256"
        }
      ],
      "name": "userDeposits",
      "outputs": [
        {
          "internalType": "uint256",
          "name": "amount",
          "type": "uint256"
        },
        {
          "internalType": "uint256",
          "name": "rewardEligibilityCounter",
          "type": "uint256"
        }
      ],
      "stateMutability": "view",
      "type": "function"
    },
    {
      "inputs": [],
      "name": "withdraw",
      "outputs": [],
      "stateMutability": "nonpayable",
      "type": "function"
    },
    {
      "stateMutability": "payable",
      "type": "receive"
    }
  ],
  "bytecode": "0x6080604052600060045534801561001557600080fd5b50336000806101000a81548173ffffffffffffffffffffffffffffffffffffffff021916908373ffffffffffffffffffffffffffffffffffffffff16021790555061160a806100656000396000f3fe6080604052600436106100955760003560e01c806370a082311161005957806370a08231146101c557806385f2aef214610202578063c55627441461022d578063d0e30db014610258578063ecfb49a314610262576100d5565b806308f4333314610110578063152111f71461014e5780631ba2f531146101585780633ccfd60b146101835780634c6423e11461019a576100d5565b366100d5576040517f08c379a00000000000000000000000000000000000000000000000000000000081526004016100cc90610d11565b60405180910390fd5b6040517f08c379a000000000000000000000000000000000000000000000000000000000815260040161010790610d11565b60405180910390fd5b34801561011c57600080fd5b5061013760048036038101906101329190610dca565b61028d565b604051610145929190610e19565b60405180910390f35b6101566102ce565b005b34801561016457600080fd5b5061016d6104b1565b60405161017a9190610e42565b60405180910390f35b34801561018f57600080fd5b506101986104bb565b005b3480156101a657600080fd5b506101af6107e6565b6040516101bc9190610e42565b60405180910390f35b3480156101d157600080fd5b506101ec60048036038101906101e79190610e5d565b6107ec565b6040516101f99190610e42565b60405180910390f35b34801561020e57600080fd5b5061021761096d565b6040516102249190610e99565b60405180910390f35b34801561023957600080fd5b50610242610991565b60405161024f9190610e42565b60405180910390f35b610260610997565b005b34801561026e57600080fd5b50610277610ada565b6040516102849190610e42565b60405180910390f35b600260205281600052604060002081815481106102a957600080fd5b9060005260206000209060020201600091509150508060000154908060010154905082565b60008054906101000a900473ffffffffffffffffffffffffffffffffffffffff1673ffffffffffffffffffffffffffffffffffffffff163373ffffffffffffffffffffffffffffffffffffffff161461035c576040517f08c379a000000000000000000000000000000000000000000000000000000000815260040161035390610f26565b60405180910390fd5b6000341161039f576040517f08c379a000000000000000000000000000000000000000000000000000000000815260040161039690610f92565b60405180910390fd5b6000600154116103e4576040517f08c379a00000000000000000000000000000000000000000000000000000000081526004016103db90610ffe565b60405180910390fd5b600061041260015461040464e8d4a5100034610ae090919063ffffffff16565b610b5a90919063ffffffff16565b905061042981600354610bb290919063ffffffff16565b60038190555061044434600154610bb290919063ffffffff16565b6001819055506004600081548092919061045d9061104d565b91905055503073ffffffffffffffffffffffffffffffffffffffff167fd4c5c790c0de5ae6a5b6b47df3b249fe3f354b405ba35070d9c8b2f07456822a6040516104a6906110e1565b60405180910390a250565b6000600154905090565b6000805b600260003373ffffffffffffffffffffffffffffffffffffffff1673ffffffffffffffffffffffffffffffffffffffff1681526020019081526020016000208054905081101561062c576000600260003373ffffffffffffffffffffffffffffffffffffffff1673ffffffffffffffffffffffffffffffffffffffff168152602001908152602001600020828154811061055c5761055b611101565b5b9060005260206000209060020201604051806040016040529081600082015481526020016001820154815250509050600454816020015110156105fe5760006105cb64e8d4a510006105bd6003548560000151610ae090919063ffffffff16565b610b5a90919063ffffffff16565b90506105f6816105e8846000015187610bb290919063ffffffff16565b610bb290919063ffffffff16565b935050610618565b610615816000015184610bb290919063ffffffff16565b92505b5080806106249061104d565b9150506104bf565b5060008111610670576040517f08c379a00000000000000000000000000000000000000000000000000000000081526004016106679061117c565b60405180910390fd5b600260003373ffffffffffffffffffffffffffffffffffffffff1673ffffffffffffffffffffffffffffffffffffffff16815260200190815260200160002060006106bb9190610c69565b6106e2816106d483600154610c1090919063ffffffff16565b610bb290919063ffffffff16565b60018190555060003373ffffffffffffffffffffffffffffffffffffffff168260405161070e906111cd565b60006040518083038185875af1925050503d806000811461074b576040519150601f19603f3d011682016040523d82523d6000602084013e610750565b606091505b5050905080610794576040517f08c379a000000000000000000000000000000000000000000000000000000000815260040161078b9061122e565b60405180910390fd5b3373ffffffffffffffffffffffffffffffffffffffff167f7084f5476618d8e60b11ef0d7d3f06914655adb8793e28ff7f018d4c76d505d5836040516107da9190610e42565b60405180910390a25050565b60045481565b6000806000905060005b600260008573ffffffffffffffffffffffffffffffffffffffff1673ffffffffffffffffffffffffffffffffffffffff16815260200190815260200160002080549050811015610963576000600260008673ffffffffffffffffffffffffffffffffffffffff1673ffffffffffffffffffffffffffffffffffffffff168152602001908152602001600020828154811061089357610892611101565b5b90600052602060002090600202016040518060400160405290816000820154815260200160018201548152505090506004548160200151101561093557600061090264e8d4a510006108f46003548560000151610ae090919063ffffffff16565b610b5a90919063ffffffff16565b905061092d8161091f846000015187610bb290919063ffffffff16565b610bb290919063ffffffff16565b93505061094f565b61094c816000015184610bb290919063ffffffff16565b92505b50808061095b9061104d565b9150506107f6565b5080915050919050565b60008054906101000a900473ffffffffffffffffffffffffffffffffffffffff1681565b60035481565b600034116109da576040517f08c379a00000000000000000000000000000000000000000000000000000000081526004016109d19061129a565b60405180910390fd5b600260003373ffffffffffffffffffffffffffffffffffffffff1673ffffffffffffffffffffffffffffffffffffffff1681526020019081526020016000206040518060400160405280348152602001600454815250908060018154018082558091505060019003906000526020600020906002020160009091909190915060008201518160000155602082015181600101555050610a8434600154610bb290919063ffffffff16565b6001819055503373ffffffffffffffffffffffffffffffffffffffff167fd15c9547ea5c06670c0010ce19bc32d54682a4b3801ece7f3ab0c3f17106b4bb34604051610ad09190610e42565b60405180910390a2565b60015481565b6000808303610af25760009050610b54565b60008284610b0091906112ba565b9050828482610b0f9190611343565b14610b4f576040517f08c379a0000000000000000000000000000000000000000000000000000000008152600401610b46906113e6565b60405180910390fd5b809150505b92915050565b6000808211610b9e576040517f08c379a0000000000000000000000000000000000000000000000000000000008152600401610b9590611452565b60405180910390fd5b8183610baa9190611343565b905092915050565b6000808284610bc19190611472565b905083811015610c06576040517f08c379a0000000000000000000000000000000000000000000000000000000008152600401610bfd90611514565b60405180910390fd5b8091505092915050565b600082821115610c55576040517f08c379a0000000000000000000000000000000000000000000000000000000008152600401610c4c90611580565b60405180910390fd5b8183610c6191906115a0565b905092915050565b5080546000825560020290600052602060002090810190610c8a9190610c8d565b50565b5b80821115610cb057600080820160009055600182016000905550600201610c8e565b5090565b600082825260208201905092915050565b7f506c656173652075736520746865206465706f7369742066756e6374696f6e00600082015250565b6000610cfb601f83610cb4565b9150610d0682610cc5565b602082019050919050565b60006020820190508181036000830152610d2a81610cee565b9050919050565b600080fd5b600073ffffffffffffffffffffffffffffffffffffffff82169050919050565b6000610d6182610d36565b9050919050565b610d7181610d56565b8114610d7c57600080fd5b50565b600081359050610d8e81610d68565b92915050565b6000819050919050565b610da781610d94565b8114610db257600080fd5b50565b600081359050610dc481610d9e565b92915050565b60008060408385031215610de157610de0610d31565b5b6000610def85828601610d7f565b9250506020610e0085828601610db5565b9150509250929050565b610e1381610d94565b82525050565b6000604082019050610e2e6000830185610e0a565b610e3b6020830184610e0a565b9392505050565b6000602082019050610e576000830184610e0a565b92915050565b600060208284031215610e7357610e72610d31565b5b6000610e8184828501610d7f565b91505092915050565b610e9381610d56565b82525050565b6000602082019050610eae6000830184610e8a565b92915050565b7f4f6e6c7920746865207465616d2063616e2063616c6c20746869732066756e6360008201527f74696f6e2e000000000000000000000000000000000000000000000000000000602082015250565b6000610f10602583610cb4565b9150610f1b82610eb4565b604082019050919050565b60006020820190508181036000830152610f3f81610f03565b9050919050565b7f526577617264206d7573742062652067726561746572207468616e2030000000600082015250565b6000610f7c601d83610cb4565b9150610f8782610f46565b602082019050919050565b60006020820190508181036000830152610fab81610f6f565b9050919050565b7f4e6f206465706f7369747320746f207265776172640000000000000000000000600082015250565b6000610fe8601583610cb4565b9150610ff382610fb2565b602082019050919050565b6000602082019050818103600083015261101781610fdb565b9050919050565b7f4e487b7100000000000000000000000000000000000000000000000000000000600052601160045260246000fd5b600061105882610d94565b91507fffffffffffffffffffffffffffffffffffffffffffffffffffffffffffffffff820361108a5761108961101e565b5b600182019050919050565b7f4164646564207265776172647320746f20706f6f6c2100000000000000000000600082015250565b60006110cb601683610cb4565b91506110d682611095565b602082019050919050565b600060208201905081810360008301526110fa816110be565b9050919050565b7f4e487b7100000000000000000000000000000000000000000000000000000000600052603260045260246000fd5b7f5573657220686173206e6f2062616c616e636520746f20776974686472617700600082015250565b6000611166601f83610cb4565b915061117182611130565b602082019050919050565b6000602082019050818103600083015261119581611159565b9050919050565b600081905092915050565b50565b60006111b760008361119c565b91506111c2826111a7565b600082019050919050565b60006111d8826111aa565b9150819050919050565b7f4661696c656420746f2073656e64204574686572000000000000000000000000600082015250565b6000611218601483610cb4565b9150611223826111e2565b602082019050919050565b600060208201905081810360008301526112478161120b565b9050919050565b7f4465706f736974206d7573742062652067726561746572207468616e20300000600082015250565b6000611284601e83610cb4565b915061128f8261124e565b602082019050919050565b600060208201905081810360008301526112b381611277565b9050919050565b60006112c582610d94565b91506112d083610d94565b9250817fffffffffffffffffffffffffffffffffffffffffffffffffffffffffffffffff04831182151516156113095761130861101e565b5b828202905092915050565b7f4e487b7100000000000000000000000000000000000000000000000000000000600052601260045260246000fd5b600061134e82610d94565b915061135983610d94565b92508261136957611368611314565b5b828204905092915050565b7f536166654d6174683a206d756c7469706c69636174696f6e206f766572666c6f60008201527f7700000000000000000000000000000000000000000000000000000000000000602082015250565b60006113d0602183610cb4565b91506113db82611374565b604082019050919050565b600060208201905081810360008301526113ff816113c3565b9050919050565b7f536166654d6174683a206469766973696f6e206279207a65726f000000000000600082015250565b600061143c601a83610cb4565b915061144782611406565b602082019050919050565b6000602082019050818103600083015261146b8161142f565b9050919050565b600061147d82610d94565b915061148883610d94565b9250827fffffffffffffffffffffffffffffffffffffffffffffffffffffffffffffffff038211156114bd576114bc61101e565b5b828201905092915050565b7f536166654d6174683a206164646974696f6e206f766572666c6f770000000000600082015250565b60006114fe601b83610cb4565b9150611509826114c8565b602082019050919050565b6000602082019050818103600083015261152d816114f1565b9050919050565b7f536166654d6174683a207375627472616374696f6e206f766572666c6f770000600082015250565b600061156a601e83610cb4565b915061157582611534565b602082019050919050565b600060208201905081810360008301526115998161155d565b9050919050565b60006115ab82610d94565b91506115b683610d94565b9250828210156115c9576115c861101e565b5b82820390509291505056fea26469706673582212205e0c58902fba41ed16def8c6374e7153cb3e5c0ddbebc9d01f6be332c70ed00464736f6c634300080f0033",
  "linkReferences": {},
  "deployedLinkReferences": {}
}